{
  "_format": "hh-sol-artifact-1",
  "contractName": "CommunityFund",
  "sourceName": "contracts/CommunityFund.sol",
  "abi": [
    {
      "inputs": [
        {
          "internalType": "address",
          "name": "_from",
          "type": "address"
        },
        {
          "internalType": "string",
          "name": "_name",
          "type": "string"
        },
        {
          "internalType": "uint256",
          "name": "_requiredNbOfParticipants",
          "type": "uint256"
        },
        {
          "internalType": "uint256",
          "name": "_recurringAmount",
          "type": "uint256"
        },
        {
          "internalType": "uint256",
          "name": "_startDate",
          "type": "uint256"
        },
        {
          "internalType": "uint256",
          "name": "_duration",
          "type": "uint256"
        }
      ],
      "stateMutability": "payable",
      "type": "constructor"
    },
    {
      "inputs": [
        {
          "internalType": "uint256",
          "name": "",
          "type": "uint256"
        }
      ],
      "name": "allParticipants",
      "outputs": [
        {
          "internalType": "address",
          "name": "",
          "type": "address"
        }
      ],
      "stateMutability": "view",
      "type": "function"
    },
    {
      "inputs": [],
      "name": "collateral",
      "outputs": [],
      "stateMutability": "payable",
      "type": "function"
    },
    {
      "inputs": [],
      "name": "deposit",
      "outputs": [],
      "stateMutability": "payable",
      "type": "function"
    },
    {
      "inputs": [],
      "name": "duration",
      "outputs": [
        {
          "internalType": "uint256",
          "name": "",
          "type": "uint256"
        }
      ],
      "stateMutability": "view",
      "type": "function"
    },
    {
      "inputs": [],
      "name": "getAllParticipants",
      "outputs": [
        {
          "internalType": "address[]",
          "name": "",
          "type": "address[]"
        }
      ],
      "stateMutability": "view",
      "type": "function"
    },
    {
      "inputs": [],
      "name": "name",
      "outputs": [
        {
          "internalType": "string",
          "name": "",
          "type": "string"
        }
      ],
      "stateMutability": "view",
      "type": "function"
    },
    {
      "inputs": [
        {
          "internalType": "address",
          "name": "",
          "type": "address"
        }
      ],
      "name": "participants",
      "outputs": [
        {
          "internalType": "uint256",
          "name": "balance",
          "type": "uint256"
        },
        {
          "internalType": "bool",
          "name": "collateral",
          "type": "bool"
        }
      ],
      "stateMutability": "view",
      "type": "function"
    },
    {
      "inputs": [],
      "name": "recurringAmount",
      "outputs": [
        {
          "internalType": "uint256",
          "name": "",
          "type": "uint256"
        }
      ],
      "stateMutability": "view",
      "type": "function"
    },
    {
      "inputs": [],
      "name": "requiredNbOfParticipants",
      "outputs": [
        {
          "internalType": "uint256",
          "name": "",
          "type": "uint256"
        }
      ],
      "stateMutability": "view",
      "type": "function"
    },
    {
      "inputs": [],
      "name": "startDate",
      "outputs": [
        {
          "internalType": "uint256",
          "name": "",
          "type": "uint256"
        }
      ],
      "stateMutability": "view",
      "type": "function"
    }
  ],
  "bytecode": "0x6080604052604051620017f1380380620017f183398181016040528101906200002991906200039e565b8142106200006e576040517f08c379a00000000000000000000000000000000000000000000000000000000081526004016200006590620004bd565b60405180910390fd5b6000341480620000a757506064607882856200008b9190620005e4565b620000979190620005e4565b620000a39190620005ac565b3410155b620000e9576040517f08c379a0000000000000000000000000000000000000000000000000000000008152600401620000e0906200049b565b60405180910390fd5b8460009080519060200190620001019291906200024e565b50836001819055508260028190555080600481905550816003819055506000341115620002425734600560008873ffffffffffffffffffffffffffffffffffffffff1673ffffffffffffffffffffffffffffffffffffffff16815260200190815260200160002060000160008282546200017c91906200054f565b925050819055506001600560008873ffffffffffffffffffffffffffffffffffffffff1673ffffffffffffffffffffffffffffffffffffffff16815260200190815260200160002060010160006101000a81548160ff0219169083151502179055506006869080600181540180825580915050600190039060005260206000200160009091909190916101000a81548173ffffffffffffffffffffffffffffffffffffffff021916908373ffffffffffffffffffffffffffffffffffffffff1602179055505b5050505050506200089e565b8280546200025c90620006b9565b90600052602060002090601f016020900481019282620002805760008555620002cc565b82601f106200029b57805160ff1916838001178555620002cc565b82800160010185558215620002cc579182015b82811115620002cb578251825591602001919060010190620002ae565b5b509050620002db9190620002df565b5090565b5b80821115620002fa576000816000905550600101620002e0565b5090565b6000620003156200030f8462000508565b620004df565b9050828152602081018484840111156200032e57600080fd5b6200033b84828562000683565b509392505050565b60008151905062000354816200086a565b92915050565b600082601f8301126200036c57600080fd5b81516200037e848260208601620002fe565b91505092915050565b600081519050620003988162000884565b92915050565b60008060008060008060c08789031215620003b857600080fd5b6000620003c889828a0162000343565b965050602087015167ffffffffffffffff811115620003e657600080fd5b620003f489828a016200035a565b95505060406200040789828a0162000387565b94505060606200041a89828a0162000387565b93505060806200042d89828a0162000387565b92505060a06200044089828a0162000387565b9150509295509295509295565b60006200045c6015836200053e565b91506200046982620007f2565b602082019050919050565b600062000483602d836200053e565b915062000490826200081b565b604082019050919050565b60006020820190508181036000830152620004b6816200044d565b9050919050565b60006020820190508181036000830152620004d88162000474565b9050919050565b6000620004eb620004fe565b9050620004f98282620006ef565b919050565b6000604051905090565b600067ffffffffffffffff821115620005265762000525620007b2565b5b6200053182620007e1565b9050602081019050919050565b600082825260208201905092915050565b60006200055c8262000679565b9150620005698362000679565b9250827fffffffffffffffffffffffffffffffffffffffffffffffffffffffffffffffff03821115620005a157620005a062000725565b5b828201905092915050565b6000620005b98262000679565b9150620005c68362000679565b925082620005d957620005d862000754565b5b828204905092915050565b6000620005f18262000679565b9150620005fe8362000679565b9250817fffffffffffffffffffffffffffffffffffffffffffffffffffffffffffffffff04831182151516156200063a576200063962000725565b5b828202905092915050565b6000620006528262000659565b9050919050565b600073ffffffffffffffffffffffffffffffffffffffff82169050919050565b6000819050919050565b60005b83811015620006a357808201518184015260208101905062000686565b83811115620006b3576000848401525b50505050565b60006002820490506001821680620006d257607f821691505b60208210811415620006e957620006e862000783565b5b50919050565b620006fa82620007e1565b810181811067ffffffffffffffff821117156200071c576200071b620007b2565b5b80604052505050565b7f4e487b7100000000000000000000000000000000000000000000000000000000600052601160045260246000fd5b7f4e487b7100000000000000000000000000000000000000000000000000000000600052601260045260246000fd5b7f4e487b7100000000000000000000000000000000000000000000000000000000600052602260045260246000fd5b7f4e487b7100000000000000000000000000000000000000000000000000000000600052604160045260246000fd5b6000601f19601f8301169050919050565b7f6e6f7420656e6f75676820636f6c6c61746572616c0000000000000000000000600082015250565b7f73746172742064617465206f66207468652066756e64206d757374206265206960008201527f6e20746865206675747572652100000000000000000000000000000000000000602082015250565b620008758162000645565b81146200088157600080fd5b50565b6200088f8162000679565b81146200089b57600080fd5b50565b610f4380620008ae6000396000f3fe6080604052600436106100915760003560e01c8063195ec9ee11610059578063195ec9ee14610192578063d0089573146101bd578063d0e30db0146101e8578063d8dfeb45146101f2578063ee34fb28146101fc57610091565b806305e33dd01461009657806306fdde03146100d357806309e69ede146100fe5780630b97bc861461013c5780630fb5a6b414610167575b600080fd5b3480156100a257600080fd5b506100bd60048036038101906100b891906107f9565b610227565b6040516100ca91906109df565b60405180910390f35b3480156100df57600080fd5b506100e8610266565b6040516100f59190610a1c565b60405180910390f35b34801561010a57600080fd5b50610125600480360381019061012091906107d0565b6102f4565b604051610133929190610b19565b60405180910390f35b34801561014857600080fd5b50610151610325565b60405161015e9190610afe565b60405180910390f35b34801561017357600080fd5b5061017c61032b565b6040516101899190610afe565b60405180910390f35b34801561019e57600080fd5b506101a7610331565b6040516101b491906109fa565b60405180910390f35b3480156101c957600080fd5b506101d26103bf565b6040516101df9190610afe565b60405180910390f35b6101f06103c5565b005b6101fa6104fa565b005b34801561020857600080fd5b506102116107a0565b60405161021e9190610afe565b60405180910390f35b6006818154811061023757600080fd5b906000526020600020016000915054906101000a900473ffffffffffffffffffffffffffffffffffffffff1681565b6000805461027390610cf3565b80601f016020809104026020016040519081016040528092919081815260200182805461029f90610cf3565b80156102ec5780601f106102c1576101008083540402835291602001916102ec565b820191906000526020600020905b8154815290600101906020018083116102cf57829003601f168201915b505050505081565b60056020528060005260406000206000915090508060000154908060010160009054906101000a900460ff16905082565b60035481565b60045481565b606060068054806020026020016040519081016040528092919081815260200182805480156103b557602002820191906000526020600020905b8160009054906101000a900473ffffffffffffffffffffffffffffffffffffffff1673ffffffffffffffffffffffffffffffffffffffff168152602001906001019080831161036b575b5050505050905090565b60025481565b60011515600560003373ffffffffffffffffffffffffffffffffffffffff1673ffffffffffffffffffffffffffffffffffffffff16815260200190815260200160002060010160009054906101000a900460ff1615151461045b576040517f08c379a000000000000000000000000000000000000000000000000000000000815260040161045290610a5e565b60405180910390fd5b600254341461049f576040517f08c379a000000000000000000000000000000000000000000000000000000000815260040161049690610abe565b60405180910390fd5b34600560003373ffffffffffffffffffffffffffffffffffffffff1673ffffffffffffffffffffffffffffffffffffffff16815260200190815260200160002060000160008282546104f19190610b97565b92505081905550565b600354421061053e576040517f08c379a000000000000000000000000000000000000000000000000000000000815260040161053590610a3e565b60405180910390fd5b60015460068054905010610587576040517f08c379a000000000000000000000000000000000000000000000000000000000815260040161057e90610ade565b60405180910390fd5b60001515600560003373ffffffffffffffffffffffffffffffffffffffff1673ffffffffffffffffffffffffffffffffffffffff16815260200190815260200160002060010160009054906101000a900460ff1615151461061d576040517f08c379a000000000000000000000000000000000000000000000000000000000815260040161061490610a9e565b60405180910390fd5b606460786004546002546106319190610c1e565b61063b9190610c1e565b6106459190610bed565b341015610687576040517f08c379a000000000000000000000000000000000000000000000000000000000815260040161067e90610a7e565b60405180910390fd5b34600560003373ffffffffffffffffffffffffffffffffffffffff1673ffffffffffffffffffffffffffffffffffffffff16815260200190815260200160002060000160008282546106d99190610b97565b925050819055506001600560003373ffffffffffffffffffffffffffffffffffffffff1673ffffffffffffffffffffffffffffffffffffffff16815260200190815260200160002060010160006101000a81548160ff0219169083151502179055506006339080600181540180825580915050600190039060005260206000200160009091909190916101000a81548173ffffffffffffffffffffffffffffffffffffffff021916908373ffffffffffffffffffffffffffffffffffffffff160217905550565b60015481565b6000813590506107b581610edf565b92915050565b6000813590506107ca81610ef6565b92915050565b6000602082840312156107e257600080fd5b60006107f0848285016107a6565b91505092915050565b60006020828403121561080b57600080fd5b6000610819848285016107bb565b91505092915050565b600061082e838361083a565b60208301905092915050565b61084381610c78565b82525050565b61085281610c78565b82525050565b600061086382610b52565b61086d8185610b75565b935061087883610b42565b8060005b838110156108a95781516108908882610822565b975061089b83610b68565b92505060018101905061087c565b5085935050505092915050565b6108bf81610c8a565b82525050565b60006108d082610b5d565b6108da8185610b86565b93506108ea818560208601610cc0565b6108f381610db2565b840191505092915050565b600061090b603483610b86565b915061091682610dc3565b604082019050919050565b600061092e601383610b86565b915061093982610e12565b602082019050919050565b6000610951601b83610b86565b915061095c82610e3b565b602082019050919050565b6000610974601983610b86565b915061097f82610e64565b602082019050919050565b6000610997601b83610b86565b91506109a282610e8d565b602082019050919050565b60006109ba601883610b86565b91506109c582610eb6565b602082019050919050565b6109d981610cb6565b82525050565b60006020820190506109f46000830184610849565b92915050565b60006020820190508181036000830152610a148184610858565b905092915050565b60006020820190508181036000830152610a3681846108c5565b905092915050565b60006020820190508181036000830152610a57816108fe565b9050919050565b60006020820190508181036000830152610a7781610921565b9050919050565b60006020820190508181036000830152610a9781610944565b9050919050565b60006020820190508181036000830152610ab781610967565b9050919050565b60006020820190508181036000830152610ad78161098a565b9050919050565b60006020820190508181036000830152610af7816109ad565b9050919050565b6000602082019050610b1360008301846109d0565b92915050565b6000604082019050610b2e60008301856109d0565b610b3b60208301846108b6565b9392505050565b6000819050602082019050919050565b600081519050919050565b600081519050919050565b6000602082019050919050565b600082825260208201905092915050565b600082825260208201905092915050565b6000610ba282610cb6565b9150610bad83610cb6565b9250827fffffffffffffffffffffffffffffffffffffffffffffffffffffffffffffffff03821115610be257610be1610d25565b5b828201905092915050565b6000610bf882610cb6565b9150610c0383610cb6565b925082610c1357610c12610d54565b5b828204905092915050565b6000610c2982610cb6565b9150610c3483610cb6565b9250817fffffffffffffffffffffffffffffffffffffffffffffffffffffffffffffffff0483118215151615610c6d57610c6c610d25565b5b828202905092915050565b6000610c8382610c96565b9050919050565b60008115159050919050565b600073ffffffffffffffffffffffffffffffffffffffff82169050919050565b6000819050919050565b60005b83811015610cde578082015181840152602081019050610cc3565b83811115610ced576000848401525b50505050565b60006002820490506001821680610d0b57607f821691505b60208210811415610d1f57610d1e610d83565b5b50919050565b7f4e487b7100000000000000000000000000000000000000000000000000000000600052601160045260246000fd5b7f4e487b7100000000000000000000000000000000000000000000000000000000600052601260045260246000fd5b7f4e487b7100000000000000000000000000000000000000000000000000000000600052602260045260246000fd5b6000601f19601f8301169050919050565b7f636f6c6c61746572616c206d75737420626520636f6d6d69747465642062656660008201527f6f7265207468652066756e647320737461727473000000000000000000000000602082015250565b7f636f6c6c61746572616c20726571756972656400000000000000000000000000600082015250565b7f6d696e696d756d20636f6c6c61746572616c2072657175697265640000000000600082015250565b7f636f6c6c61746572616c20616c7265616479206c6f636b656400000000000000600082015250565b7f706c65617365206465706f73697420657861637420616d6f756e740000000000600082015250565b7f6d6178207061727469636970616e747320726561636865640000000000000000600082015250565b610ee881610c78565b8114610ef357600080fd5b50565b610eff81610cb6565b8114610f0a57600080fd5b5056fea2646970667358221220a98afbc36f93f431039ce768bff98de0eb1091f91e7ef850c79ed6aa2560025b64736f6c63430008040033",
  "linkReferences": {},
  "deployedLinkReferences": {}
}