{
  "_format": "hh-sol-artifact-1",
  "contractName": "CommunityFund",
  "sourceName": "contracts/CommunityFund.sol",
  "abi": [
    {
      "inputs": [
        {
          "internalType": "string",
          "name": "_name",
          "type": "string"
        },
        {
          "internalType": "uint256",
          "name": "_requiredNbOfParticipants",
          "type": "uint256"
        },
        {
          "internalType": "uint256",
          "name": "_recurringAmount",
          "type": "uint256"
        },
        {
          "internalType": "uint256",
          "name": "_startDate",
          "type": "uint256"
        },
        {
          "internalType": "uint256",
          "name": "_duration",
          "type": "uint256"
        }
      ],
      "stateMutability": "nonpayable",
      "type": "constructor"
    },
    {
      "inputs": [
        {
          "internalType": "uint256",
          "name": "",
          "type": "uint256"
        }
      ],
      "name": "allParticipants",
      "outputs": [
        {
          "internalType": "address",
          "name": "",
          "type": "address"
        }
      ],
      "stateMutability": "view",
      "type": "function"
    },
    {
      "inputs": [],
      "name": "deposit",
      "outputs": [],
      "stateMutability": "payable",
      "type": "function"
    },
    {
      "inputs": [],
      "name": "duration",
      "outputs": [
        {
          "internalType": "uint256",
          "name": "",
          "type": "uint256"
        }
      ],
      "stateMutability": "view",
      "type": "function"
    },
    {
      "inputs": [],
      "name": "name",
      "outputs": [
        {
          "internalType": "string",
          "name": "",
          "type": "string"
        }
      ],
      "stateMutability": "view",
      "type": "function"
    },
    {
      "inputs": [
        {
          "internalType": "address",
          "name": "",
          "type": "address"
        }
      ],
      "name": "participants",
      "outputs": [
        {
          "internalType": "uint256",
          "name": "balance",
          "type": "uint256"
        },
        {
          "internalType": "bool",
          "name": "exists",
          "type": "bool"
        }
      ],
      "stateMutability": "view",
      "type": "function"
    },
    {
      "inputs": [],
      "name": "recurringAmount",
      "outputs": [
        {
          "internalType": "uint256",
          "name": "",
          "type": "uint256"
        }
      ],
      "stateMutability": "view",
      "type": "function"
    },
    {
      "inputs": [],
      "name": "requiredNbOfParticipants",
      "outputs": [
        {
          "internalType": "uint256",
          "name": "",
          "type": "uint256"
        }
      ],
      "stateMutability": "view",
      "type": "function"
    },
    {
      "inputs": [],
      "name": "startDate",
      "outputs": [
        {
          "internalType": "uint256",
          "name": "",
          "type": "uint256"
        }
      ],
      "stateMutability": "view",
      "type": "function"
    }
  ],
  "bytecode": "0x60806040523480156200001157600080fd5b5060405162000d1538038062000d158339818101604052810190620000379190620001b0565b84600090805190602001906200004f92919062000077565b50836001819055508260028190555080600481905550816003819055505050505050620003df565b8280546200008590620002ea565b90600052602060002090601f016020900481019282620000a95760008555620000f5565b82601f10620000c457805160ff1916838001178555620000f5565b82800160010185558215620000f5579182015b82811115620000f4578251825591602001919060010190620000d7565b5b50905062000104919062000108565b5090565b5b808211156200012357600081600090555060010162000109565b5090565b60006200013e620001388462000274565b6200024b565b9050828152602081018484840111156200015757600080fd5b62000164848285620002b4565b509392505050565b600082601f8301126200017e57600080fd5b81516200019084826020860162000127565b91505092915050565b600081519050620001aa81620003c5565b92915050565b600080600080600060a08688031215620001c957600080fd5b600086015167ffffffffffffffff811115620001e457600080fd5b620001f2888289016200016c565b9550506020620002058882890162000199565b9450506040620002188882890162000199565b93505060606200022b8882890162000199565b92505060806200023e8882890162000199565b9150509295509295909350565b6000620002576200026a565b905062000265828262000320565b919050565b6000604051905090565b600067ffffffffffffffff82111562000292576200029162000385565b5b6200029d82620003b4565b9050602081019050919050565b6000819050919050565b60005b83811015620002d4578082015181840152602081019050620002b7565b83811115620002e4576000848401525b50505050565b600060028204905060018216806200030357607f821691505b602082108114156200031a576200031962000356565b5b50919050565b6200032b82620003b4565b810181811067ffffffffffffffff821117156200034d576200034c62000385565b5b80604052505050565b7f4e487b7100000000000000000000000000000000000000000000000000000000600052602260045260246000fd5b7f4e487b7100000000000000000000000000000000000000000000000000000000600052604160045260246000fd5b6000601f19601f8301169050919050565b620003d081620002aa565b8114620003dc57600080fd5b50565b61092680620003ef6000396000f3fe60806040526004361061007b5760003560e01c80630fb5a6b41161004e5780630fb5a6b414610151578063d00895731461017c578063d0e30db0146101a7578063ee34fb28146101b15761007b565b806305e33dd01461008057806306fdde03146100bd57806309e69ede146100e85780630b97bc8614610126575b600080fd5b34801561008c57600080fd5b506100a760048036038101906100a2919061054c565b6101dc565b6040516100b49190610621565b60405180910390f35b3480156100c957600080fd5b506100d261021b565b6040516100df919061063c565b60405180910390f35b3480156100f457600080fd5b5061010f600480360381019061010a9190610523565b6102a9565b60405161011d9291906106b9565b60405180910390f35b34801561013257600080fd5b5061013b6102da565b604051610148919061069e565b60405180910390f35b34801561015d57600080fd5b506101666102e0565b604051610173919061069e565b60405180910390f35b34801561018857600080fd5b506101916102e6565b60405161019e919061069e565b60405180910390f35b6101af6102ec565b005b3480156101bd57600080fd5b506101c66104f3565b6040516101d3919061069e565b60405180910390f35b600681815481106101ec57600080fd5b906000526020600020016000915054906101000a900473ffffffffffffffffffffffffffffffffffffffff1681565b60008054610228906107cf565b80601f0160208091040260200160405190810160405280929190818152602001828054610254906107cf565b80156102a15780601f10610276576101008083540402835291602001916102a1565b820191906000526020600020905b81548152906001019060200180831161028457829003601f168201915b505050505081565b60056020528060005260406000206000915090508060000154908060010160009054906101000a900460ff16905082565b60035481565b60045481565b60025481565b600154600680549050108061035757506001600560003373ffffffffffffffffffffffffffffffffffffffff1673ffffffffffffffffffffffffffffffffffffffff16815260200190815260200160002060010160006101000a81548160ff02191690831515021790555b610396576040517f08c379a000000000000000000000000000000000000000000000000000000000815260040161038d9061067e565b60405180910390fd5b60025434146103da576040517f08c379a00000000000000000000000000000000000000000000000000000000081526004016103d19061065e565b60405180910390fd5b34600560003373ffffffffffffffffffffffffffffffffffffffff1673ffffffffffffffffffffffffffffffffffffffff168152602001908152602001600020600001600082825461042c91906106fe565b925050819055506001600560003373ffffffffffffffffffffffffffffffffffffffff1673ffffffffffffffffffffffffffffffffffffffff16815260200190815260200160002060010160006101000a81548160ff0219169083151502179055506006339080600181540180825580915050600190039060005260206000200160009091909190916101000a81548173ffffffffffffffffffffffffffffffffffffffff021916908373ffffffffffffffffffffffffffffffffffffffff160217905550565b60015481565b600081359050610508816108c2565b92915050565b60008135905061051d816108d9565b92915050565b60006020828403121561053557600080fd5b6000610543848285016104f9565b91505092915050565b60006020828403121561055e57600080fd5b600061056c8482850161050e565b91505092915050565b61057e81610754565b82525050565b61058d81610766565b82525050565b600061059e826106e2565b6105a881856106ed565b93506105b881856020860161079c565b6105c18161085f565b840191505092915050565b60006105d9601b836106ed565b91506105e482610870565b602082019050919050565b60006105fc6018836106ed565b915061060782610899565b602082019050919050565b61061b81610792565b82525050565b60006020820190506106366000830184610575565b92915050565b600060208201905081810360008301526106568184610593565b905092915050565b60006020820190508181036000830152610677816105cc565b9050919050565b60006020820190508181036000830152610697816105ef565b9050919050565b60006020820190506106b36000830184610612565b92915050565b60006040820190506106ce6000830185610612565b6106db6020830184610584565b9392505050565b600081519050919050565b600082825260208201905092915050565b600061070982610792565b915061071483610792565b9250827fffffffffffffffffffffffffffffffffffffffffffffffffffffffffffffffff0382111561074957610748610801565b5b828201905092915050565b600061075f82610772565b9050919050565b60008115159050919050565b600073ffffffffffffffffffffffffffffffffffffffff82169050919050565b6000819050919050565b60005b838110156107ba57808201518184015260208101905061079f565b838111156107c9576000848401525b50505050565b600060028204905060018216806107e757607f821691505b602082108114156107fb576107fa610830565b5b50919050565b7f4e487b7100000000000000000000000000000000000000000000000000000000600052601160045260246000fd5b7f4e487b7100000000000000000000000000000000000000000000000000000000600052602260045260246000fd5b6000601f19601f8301169050919050565b7f706c65617365206465706f73697420657861637420616d6f756e740000000000600082015250565b7f6d6178207061727469636970616e747320726561636865640000000000000000600082015250565b6108cb81610754565b81146108d657600080fd5b50565b6108e281610792565b81146108ed57600080fd5b5056fea26469706673582212209d1ec387996b016de2d6375af828e1697dd84805bce784ae10e24eb471c2f9e564736f6c63430008040033",
  "linkReferences": {},
  "deployedLinkReferences": {}
}