{
  "_format": "hh-sol-artifact-1",
  "contractName": "CommunityFund",
  "sourceName": "contracts/CommunityFund.sol",
  "abi": [
    {
      "inputs": [
        {
          "internalType": "string",
          "name": "_name",
          "type": "string"
        },
        {
          "internalType": "uint256",
          "name": "_requiredNbOfParticipants",
          "type": "uint256"
        },
        {
          "internalType": "uint256",
          "name": "_recurringAmount",
          "type": "uint256"
        },
        {
          "internalType": "uint256",
          "name": "_startDate",
          "type": "uint256"
        },
        {
          "internalType": "uint256",
          "name": "_duration",
          "type": "uint256"
        }
      ],
      "stateMutability": "nonpayable",
      "type": "constructor"
    },
    {
      "inputs": [
        {
          "internalType": "uint256",
          "name": "",
          "type": "uint256"
        }
      ],
      "name": "allParticipants",
      "outputs": [
        {
          "internalType": "address",
          "name": "",
          "type": "address"
        }
      ],
      "stateMutability": "view",
      "type": "function"
    },
    {
      "inputs": [],
      "name": "collateral",
      "outputs": [],
      "stateMutability": "payable",
      "type": "function"
    },
    {
      "inputs": [],
      "name": "deposit",
      "outputs": [],
      "stateMutability": "payable",
      "type": "function"
    },
    {
      "inputs": [],
      "name": "duration",
      "outputs": [
        {
          "internalType": "uint256",
          "name": "",
          "type": "uint256"
        }
      ],
      "stateMutability": "view",
      "type": "function"
    },
    {
      "inputs": [],
      "name": "name",
      "outputs": [
        {
          "internalType": "string",
          "name": "",
          "type": "string"
        }
      ],
      "stateMutability": "view",
      "type": "function"
    },
    {
      "inputs": [
        {
          "internalType": "address",
          "name": "",
          "type": "address"
        }
      ],
      "name": "participants",
      "outputs": [
        {
          "internalType": "uint256",
          "name": "balance",
          "type": "uint256"
        },
        {
          "internalType": "bool",
          "name": "collateral",
          "type": "bool"
        }
      ],
      "stateMutability": "view",
      "type": "function"
    },
    {
      "inputs": [],
      "name": "recurringAmount",
      "outputs": [
        {
          "internalType": "uint256",
          "name": "",
          "type": "uint256"
        }
      ],
      "stateMutability": "view",
      "type": "function"
    },
    {
      "inputs": [],
      "name": "requiredNbOfParticipants",
      "outputs": [
        {
          "internalType": "uint256",
          "name": "",
          "type": "uint256"
        }
      ],
      "stateMutability": "view",
      "type": "function"
    },
    {
      "inputs": [],
      "name": "startDate",
      "outputs": [
        {
          "internalType": "uint256",
          "name": "",
          "type": "uint256"
        }
      ],
      "stateMutability": "view",
      "type": "function"
    }
  ],
  "bytecode": "0x60806040523480156200001157600080fd5b5060405162001115380380620011158339818101604052810190620000379190620001b0565b84600090805190602001906200004f92919062000077565b50836001819055508260028190555080600481905550816003819055505050505050620003df565b8280546200008590620002ea565b90600052602060002090601f016020900481019282620000a95760008555620000f5565b82601f10620000c457805160ff1916838001178555620000f5565b82800160010185558215620000f5579182015b82811115620000f4578251825591602001919060010190620000d7565b5b50905062000104919062000108565b5090565b5b808211156200012357600081600090555060010162000109565b5090565b60006200013e620001388462000274565b6200024b565b9050828152602081018484840111156200015757600080fd5b62000164848285620002b4565b509392505050565b600082601f8301126200017e57600080fd5b81516200019084826020860162000127565b91505092915050565b600081519050620001aa81620003c5565b92915050565b600080600080600060a08688031215620001c957600080fd5b600086015167ffffffffffffffff811115620001e457600080fd5b620001f2888289016200016c565b9550506020620002058882890162000199565b9450506040620002188882890162000199565b93505060606200022b8882890162000199565b92505060806200023e8882890162000199565b9150509295509295909350565b6000620002576200026a565b905062000265828262000320565b919050565b6000604051905090565b600067ffffffffffffffff82111562000292576200029162000385565b5b6200029d82620003b4565b9050602081019050919050565b6000819050919050565b60005b83811015620002d4578082015181840152602081019050620002b7565b83811115620002e4576000848401525b50505050565b600060028204905060018216806200030357607f821691505b602082108114156200031a576200031962000356565b5b50919050565b6200032b82620003b4565b810181811067ffffffffffffffff821117156200034d576200034c62000385565b5b80604052505050565b7f4e487b7100000000000000000000000000000000000000000000000000000000600052602260045260246000fd5b7f4e487b7100000000000000000000000000000000000000000000000000000000600052604160045260246000fd5b6000601f19601f8301169050919050565b620003d081620002aa565b8114620003dc57600080fd5b50565b610d2680620003ef6000396000f3fe6080604052600436106100865760003560e01c80630fb5a6b4116100595780630fb5a6b41461015c578063d008957314610187578063d0e30db0146101b2578063d8dfeb45146101bc578063ee34fb28146101c657610086565b806305e33dd01461008b57806306fdde03146100c857806309e69ede146100f35780630b97bc8614610131575b600080fd5b34801561009757600080fd5b506100b260048036038101906100ad919061071c565b6101f1565b6040516100bf919061087d565b60405180910390f35b3480156100d457600080fd5b506100dd610230565b6040516100ea9190610898565b60405180910390f35b3480156100ff57600080fd5b5061011a600480360381019061011591906106f3565b6102be565b604051610128929190610995565b60405180910390f35b34801561013d57600080fd5b506101466102ef565b604051610153919061097a565b60405180910390f35b34801561016857600080fd5b506101716102f5565b60405161017e919061097a565b60405180910390f35b34801561019357600080fd5b5061019c6102fb565b6040516101a9919061097a565b60405180910390f35b6101ba610301565b005b6101c4610436565b005b3480156101d257600080fd5b506101db6106c3565b6040516101e8919061097a565b60405180910390f35b6006818154811061020157600080fd5b906000526020600020016000915054906101000a900473ffffffffffffffffffffffffffffffffffffffff1681565b6000805461023d90610b05565b80601f016020809104026020016040519081016040528092919081815260200182805461026990610b05565b80156102b65780601f1061028b576101008083540402835291602001916102b6565b820191906000526020600020905b81548152906001019060200180831161029957829003601f168201915b505050505081565b60056020528060005260406000206000915090508060000154908060010160009054906101000a900460ff16905082565b60035481565b60045481565b60025481565b60011515600560003373ffffffffffffffffffffffffffffffffffffffff1673ffffffffffffffffffffffffffffffffffffffff16815260200190815260200160002060010160009054906101000a900460ff16151514610397576040517f08c379a000000000000000000000000000000000000000000000000000000000815260040161038e906108fa565b60405180910390fd5b60025434146103db576040517f08c379a00000000000000000000000000000000000000000000000000000000081526004016103d29061093a565b60405180910390fd5b34600560003373ffffffffffffffffffffffffffffffffffffffff1673ffffffffffffffffffffffffffffffffffffffff168152602001908152602001600020600001600082825461042d91906109da565b92505081905550565b600354421061047a576040517f08c379a0000000000000000000000000000000000000000000000000000000008152600401610471906108da565b60405180910390fd5b600154600680549050106104c3576040517f08c379a00000000000000000000000000000000000000000000000000000000081526004016104ba9061095a565b60405180910390fd5b60001515600560003373ffffffffffffffffffffffffffffffffffffffff1673ffffffffffffffffffffffffffffffffffffffff16815260200190815260200160002060010160009054906101000a900460ff16151514610559576040517f08c379a00000000000000000000000000000000000000000000000000000000081526004016105509061091a565b60405180910390fd5b6004546002546105699190610a30565b34146105aa576040517f08c379a00000000000000000000000000000000000000000000000000000000081526004016105a1906108ba565b60405180910390fd5b34600560003373ffffffffffffffffffffffffffffffffffffffff1673ffffffffffffffffffffffffffffffffffffffff16815260200190815260200160002060000160008282546105fc91906109da565b925050819055506001600560003373ffffffffffffffffffffffffffffffffffffffff1673ffffffffffffffffffffffffffffffffffffffff16815260200190815260200160002060010160006101000a81548160ff0219169083151502179055506006339080600181540180825580915050600190039060005260206000200160009091909190916101000a81548173ffffffffffffffffffffffffffffffffffffffff021916908373ffffffffffffffffffffffffffffffffffffffff160217905550565b60015481565b6000813590506106d881610cc2565b92915050565b6000813590506106ed81610cd9565b92915050565b60006020828403121561070557600080fd5b6000610713848285016106c9565b91505092915050565b60006020828403121561072e57600080fd5b600061073c848285016106de565b91505092915050565b61074e81610a8a565b82525050565b61075d81610a9c565b82525050565b600061076e826109be565b61077881856109c9565b9350610788818560208601610ad2565b61079181610b95565b840191505092915050565b60006107a96019836109c9565b91506107b482610ba6565b602082019050919050565b60006107cc6034836109c9565b91506107d782610bcf565b604082019050919050565b60006107ef6013836109c9565b91506107fa82610c1e565b602082019050919050565b60006108126019836109c9565b915061081d82610c47565b602082019050919050565b6000610835601b836109c9565b915061084082610c70565b602082019050919050565b60006108586018836109c9565b915061086382610c99565b602082019050919050565b61087781610ac8565b82525050565b60006020820190506108926000830184610745565b92915050565b600060208201905081810360008301526108b28184610763565b905092915050565b600060208201905081810360008301526108d38161079c565b9050919050565b600060208201905081810360008301526108f3816107bf565b9050919050565b60006020820190508181036000830152610913816107e2565b9050919050565b6000602082019050818103600083015261093381610805565b9050919050565b6000602082019050818103600083015261095381610828565b9050919050565b600060208201905081810360008301526109738161084b565b9050919050565b600060208201905061098f600083018461086e565b92915050565b60006040820190506109aa600083018561086e565b6109b76020830184610754565b9392505050565b600081519050919050565b600082825260208201905092915050565b60006109e582610ac8565b91506109f083610ac8565b9250827fffffffffffffffffffffffffffffffffffffffffffffffffffffffffffffffff03821115610a2557610a24610b37565b5b828201905092915050565b6000610a3b82610ac8565b9150610a4683610ac8565b9250817fffffffffffffffffffffffffffffffffffffffffffffffffffffffffffffffff0483118215151615610a7f57610a7e610b37565b5b828202905092915050565b6000610a9582610aa8565b9050919050565b60008115159050919050565b600073ffffffffffffffffffffffffffffffffffffffff82169050919050565b6000819050919050565b60005b83811015610af0578082015181840152602081019050610ad5565b83811115610aff576000848401525b50505050565b60006002820490506001821680610b1d57607f821691505b60208210811415610b3157610b30610b66565b5b50919050565b7f4e487b7100000000000000000000000000000000000000000000000000000000600052601160045260246000fd5b7f4e487b7100000000000000000000000000000000000000000000000000000000600052602260045260246000fd5b6000601f19601f8301169050919050565b7f657861637420636f6c6c61746572616c20726571756972656400000000000000600082015250565b7f636f6c6c61746572616c206d75737420626520636f6d6d69747465642062656660008201527f6f7265207468652066756e647320737461727473000000000000000000000000602082015250565b7f636f6c6c61746572616c20726571756972656400000000000000000000000000600082015250565b7f636f6c6c61746572616c20616c7265616479206c6f636b656400000000000000600082015250565b7f706c65617365206465706f73697420657861637420616d6f756e740000000000600082015250565b7f6d6178207061727469636970616e747320726561636865640000000000000000600082015250565b610ccb81610a8a565b8114610cd657600080fd5b50565b610ce281610ac8565b8114610ced57600080fd5b5056fea26469706673582212201a5102546c5ef675284b4d892f7451f48ad5f217b86bc6a7a7f0372cbbe36f2164736f6c63430008040033",
  "linkReferences": {},
  "deployedLinkReferences": {}
}